:100000000C9463000C948B000C948B000C948B006C
:100010000C948B000C948B000C948B000C948B0034
:100020000C948B000C948B000C948B000C948B0024
:100030000C948B000C948B000C948B000C948B0014
:100040000C9480020C948B000C9481040C94C804D2
:100050000C948B000C948B000C948B000C948B00F4
:100060000C948B000C948B000000000024002700EF
:100070002A0000000000250028002B0000000000DE
:1000800023002600290004040404040404040202DA
:100090000202020203030303030301020408102007
:1000A0004080010204081020010204081020000012
:1000B0000007000201000003040600000000000029
:1000C000000090002E0611241FBECFEFD8E0DEBF47
:1000D000CDBF12E0A0E0B1E0EAE3FEE102C005908E
:1000E0000D92A632B107D9F713E0A6E2B2E001C043
:1000F0001D92A633B107E1F710E0C6ECD0E004C0D2
:100100002297FE010E94170FC23CD107C9F70E9437
:100110006B020C948D000C940000F8940C941B0F4F
:10012000EF920F9386E292E061E049E028E004E07C
:1001300035E0E32E0E94A70B80E090E4ACE1B6EC42
:100140008093820290938302A0938402B0938502ED
:100150000F91EF90089580916D028823B9F487E1A3
:1001600093E060E071E00E94CF0781E080936D0230
:1001700010926C0286E292E040E050E46CE176E49A
:100180000E94A60910926B0210926A0208951092C2
:10019000010281E080936D0287E193E061E171E00B
:1001A0000E94CF070E94AB0008958093000291E067
:1001B0009093010210926D02813029F040E050E0EE
:1001C0006AE775E404C040E050E068EC72EC86E257
:1001D00092E00E94A60987E193E06CE171E00E9441
:1001E000CC0787E193E0609100024AE050E00E9472
:1001F0004F070895809100028823E9F18CE00E9466
:100200002D049093770280937602892B61F580917B
:10021000780290917902019731F50E94C8022091ED
:100220007A0230917B0240917C0250917D02621BE8
:10023000730B840B950B693C71058105910598F052
:1002400080E00E94D50087E193E065E371E00E94C1
:10025000CF070E94C80260937A0270937B0280935A
:100260007C0290937D028091760290917702909328
:1002700079028093780208958AE00E942D04909379
:100280006F0280936E02019709F03FC08091700267
:1002900090917102892BC9F50E94C80220917202C7
:1002A000309173024091740250917502621B730B7E
:1002B000840B950B693C71058105910530F18091A6
:1002C0000202813029F4109202020E94D50005C07A
:1002D00081E0809302021092010287E193E06CE5D5
:1002E00071E00E94CC0787E193E0609102024AE04E
:1002F00050E00E944F070E94C80260937202709300
:100300007302809374029093750280916E029091B3
:100310006F029093710280937002089580910002A1
:100320008130D9F083E00E942D0490938102809364
:100330008002019771F487E193E06CE771E00E941D
:10034000CF078DE061E00E94D90381E00E94D500D3
:1003500008958DE060E00E94D90308958091000225
:100360008823F1F080916D028823D1F484E00E940B
:100370002D0490937F0280937E02019769F487E1B8
:1003800093E06FE971E00E94CF078DE061E00E9489
:10039000D9030E94C70008958DE060E00E94D90350
:1003A00008950E943C010E94FA000E94AE010E9442
:1003B0008E0180910102813029F486E292E00E9450
:1003C000550C089580916D02813009F04CC087E191
:1003D00093E06FEB71E00E94CC0760916A0270912C
:1003E0006B0287E193E04AE050E00E94AD07809104
:1003F0006A0290916B0245974CF190E080916C02FB
:10040000882309F491E090936C0287E193E067EC14
:1004100071E00E94CF0780916C02813059F44091C5
:10042000820250918302609184027091850286E27B
:1004300092E006C086E292E040E050E46CE176E4AF
:100440000E94A60910926B0210926A0286E292E064
:100450000E94550C80916A0290916B0201969093D4
:100460006B0280936A0208950F931F938AE061E004
:100470000E949A038CE061E00E949A0384E060E0AD
:100480000E949A0383E060E00E949A038AE061E0A0
:100490000E94D9038CE061E00E94D90386E292E0D9
:1004A00040E050E46CE176E40E9450098091000243
:1004B0000E94D50007E113E0C80140E855E260E082
:1004C00070E00E940305C80160EE71E00E94CF0752
:1004D0001F910F910895CF93DF930E945F0361E016
:1004E00070E080E090E00E94FC020E943402C5EBC4
:1004F000D4E00E94D1012097E1F30E94B504F9CF26
:100500001F920F920FB60F9211242F933F938F9348
:100510009F93AF93BF9380918A0290918B02A09199
:100520008C02B0918D0230918E020196A11DB11DF9
:10053000232F2D5F2D3720F02D570196A11DB11DC2
:1005400020938E0280938A0290938B02A0938C0258
:10055000B0938D028091860290918702A0918802CB
:10056000B09189020196A11DB11D809386029093DE
:100570008702A0938802B0938902BF91AF919F91A7
:100580008F913F912F910F900FBE0F901F90189554
:100590008FB7F89420918A0230918B0240918C029F
:1005A00050918D028FBFB901CA0108959FB7F89489
:1005B00020918602309187024091880250918902F1
:1005C00086B5A89B06C08F3F21F02F5F3F4F4F4F4E
:1005D0005F4F9FBF542F432F322F2227280F311DEB
:1005E000411D511D82E0220F331F441F551F8A9564
:1005F000D1F7B901CA0108959B01AC017FB7F89406
:100600008091860290918702A0918802B091890220
:1006100066B5A89B05C06F3F19F00196A11DB11DDD
:100620007FBFBA2FA92F982F8827860F911DA11D54
:10063000B11D62E0880F991FAA1FBB1F6A95D1F7F1
:10064000BC012DC0FFB7F89480918602909187027B
:10065000A0918802B0918902E6B5A89B05C0EF3F42
:1006600019F00196A11DB11DFFBFBA2FA92F982F18
:1006700088278E0F911DA11DB11DE2E0880F991FE3
:10068000AA1FBB1FEA95D1F7861B970B885E934084
:10069000C8F2215030404040504068517C4F2115F5
:1006A00031054105510571F60895019739F0880F1C
:1006B000991F880F991F02970197F1F70895789471
:1006C00084B5826084BD84B5816084BD85B5826057
:1006D00085BD85B5816085BDEEE6F0E080818160F5
:1006E0008083E1E8F0E010828081826080838081F5
:1006F00081608083E0E8F0E0808181608083E1EBCD
:10070000F0E0808184608083E0EBF0E080818160B4
:100710008083EAE7F0E0808184608083808182606A
:100720008083808181608083808180688083109253
:10073000C1000895CF93DF93482F50E0CA01865639
:100740009F4FFC0134914A575F4FFA0184918823EF
:1007500069F190E0880F991FFC01E859FF4FA591BE
:10076000B491FC01EE58FF4FC591D491662351F42A
:100770002FB7F8948C91932F909589238C9388812F
:1007800089230BC0623061F42FB7F8948C91932FBA
:10079000909589238C938881832B88832FBF06C0F3
:1007A0009FB7F8948C91832B8C939FBFDF91CF914F
:1007B0000895482F50E0CA0182559F4FFC012491B3
:1007C000CA0186569F4FFC0194914A575F4FFA0128
:1007D0003491332309F440C0222351F1233071F0C6
:1007E000243028F42130A1F0223011F514C0263035
:1007F000B1F02730C1F02430D9F404C080918000DA
:100800008F7703C0809180008F7D8093800010C01F
:1008100084B58F7702C084B58F7D84BD09C0809177
:10082000B0008F7703C08091B0008F7D8093B000BF
:10083000E32FF0E0EE0FFF1FEE58FF4FA591B491AC
:100840002FB7F894662321F48C919095892302C0E8
:100850008C91892B8C932FBF0895682F70E0CB016A
:1008600082559F4FFC012491CB0186569F4FFC017E
:1008700044916A577F4FFB019491992319F420E02A
:1008800030E03CC0222351F1233071F0243028F4B1
:100890002130A1F0223011F514C02630B1F02730FC
:1008A000C1F02430D9F404C0809180008F7703C058
:1008B000809180008F7D8093800010C084B58F77F9
:1008C00002C084B58F7D84BD09C08091B0008F7750
:1008D00003C08091B0008F7D8093B000892F90E09D
:1008E000880F991F84589F4FFC01A591B4918C915A
:1008F00020E030E0842311F021E030E0C9010895C8
:1009000008951F920F920FB60F9211242F933F93C9
:100910004F938F939F93EF93FF934091C600209145
:10092000CF023091D0022F5F3F4F2F7330708091F4
:10093000D1029091D2022817390759F0E091CF02E5
:10094000F091D002E157FD4F40833093D0022093C5
:10095000CF02FF91EF919F918F914F913F912F91F6
:100960000F900FBE0F901F901895E0912303F09108
:100970002403E05CFF4F8191919120813181821BA2
:10098000930B8F739070892B11F00E94800408954F
:100990001F920F920FB60F9211242F933F938F93B4
:1009A0009F93EF93FF932091130330911403809151
:1009B0001503909116032817390731F48091C1006F
:1009C0008F7D8093C10014C0E0911503F091160350
:1009D000ED52FD4F208180911503909116030196F1
:1009E0008F73907090931603809315032093C60025
:1009F000FF91EF919F918F913F912F910F900FBE9B
:100A00000F901F901895AF92BF92DF92EF92FF92D6
:100A10000F931F93CF93DF93EC017A018B01DD24B9
:100A2000403081EE580780E0680780E0780711F0D9
:100A3000DD24D39491E0A92EB12CEC89FD89DD2031
:100A400069F0C5010E8C02C0880F991F0A94E2F765
:100A5000808360E079E08DE390E005C0108260E87B
:100A600074E88EE190E0A80197010E94F30E2150F6
:100A7000304040405040569547953795279580E146
:100A80002030380720F0DD2011F0DD24D6CFE889B2
:100A9000F9893083EA89FB892083EE89FF894081C7
:100AA00021E030E0C9010A8C02C0880F991F0A9426
:100AB000E2F7482B4083EE89FF894081C9010B8C06
:100AC00002C0880F991F0A94E2F7482B4083EE89F1
:100AD000FF894081C9010C8C02C0880F991F0A94BC
:100AE000E2F7482B4083EE89FF8980810D8C02C09C
:100AF000220F331F0A94E2F7209528232083DF91E9
:100B0000CF911F910F91FF90EF90DF90BF90AF902A
:100B10000895DC011C96ED91FC911D97E05CFF4F60
:100B20002191319180819181281B390B2F73307075
:100B3000C9010895DC011C96ED91FC911D97E05CC4
:100B4000FF4F20813181E054F040DF01AE5BBF4FA9
:100B50008D919C9111972817390719F42FEF3FEFCA
:100B600007C08D919C91E80FF91F8081282F30E0FC
:100B7000C9010895DC011C96ED91FC911D97E05C84
:100B8000FF4F20813181E054F040DF01AE5BBF4F69
:100B90008D919C9111972817390719F42FEF3FEF8A
:100BA00010C08D919C911197E80FF91F20818D91B4
:100BB0009C91119701968F73907011969C938E93D0
:100BC00030E0C9010895FC0186859785DC01A05CB1
:100BD000BF4FFC01EE5BFF4F2D913C91119780813F
:100BE000918128173907C1F70895CF93DF93EC015E
:100BF000EE85FF85E05CFF4F20813181E054F040BD
:100C00002F5F3F4F2F733070DF01AE5BBF4F8D9171
:100C10009C91119728173907D1F3E05CFF4F808131
:100C20009181E054F040E80FF91F6083EE85FF8565
:100C3000E05CFF4F31832083EE89FF89208181E0D2
:100C400090E00D8C02C0880F991F0A94E2F7282BC0
:100C5000208381E090E0DF91CF91089510921A03F4
:100C60001092190388EE93E0A0E0B0E080931B039C
:100C700090931C03A0931D03B0931E0387E092E0A2
:100C800090931803809317038FE892E090932403C6
:100C90008093230383ED92E09093260380932503B2
:100CA00085EC90E0909328038093270384EC90E0F8
:100CB00090932A038093290380EC90E090932C0377
:100CC00080932B0381EC90E090932E0380932D036F
:100CD00086EC90E09093300380932F0384E0809320
:100CE000310383E08093320387E08093330385E010
:100CF0008093340381E0809335030895CF92DF928F
:100D0000EF92FF920F931F93CF93DF937C016B01C0
:100D10008A01C0E0D0E00FC0D6016D916D01D7010E
:100D2000ED91FC910190F081E02DC7010995C80F6C
:100D3000D91F015010400115110571F7CE01DF9147
:100D4000CF911F910F91FF90EF90DF90CF9008957A
:100D5000EF92FF920F931F938C01DC01ED91FC91B8
:100D60000190F081E02D6DE009957C01D801ED91B5
:100D7000FC910190F081E02DC8016AE009959C0189
:100D80002E0D3F1DC9011F910F91FF90EF90089507
:100D9000CF93DF93DB010D900020E9F71197A61B9D
:100DA000B70BEC01E881F9810280F381E02DAD0100
:100DB0000995DF91CF9108954F925F927F928F9224
:100DC0009F92AF92BF92CF92DF92EF92FF920F93DA
:100DD0001F93DF93CF93CDB7DEB7A1970FB6F894EB
:100DE000DEBF0FBECDBF2C01742ECB01223008F424
:100DF0002AE019A231E2C32ED12CCC0EDD1E822EA8
:100E00009924AA24BB24672D752FA50194010E9463
:100E1000F30E79018A01C801B701A50194010E946E
:100E2000D40E472D461B0894C108D1084A3014F44B
:100E3000405D01C0495CF6014083E114F104010505
:100E4000110521F07E2C5F2DC801DDCFC201B60156
:100E50000E94C806A1960FB6F894DEBF0FBECDBFA4
:100E6000CF91DF911F910F91FF90EF90DF90CF9086
:100E7000BF90AF909F908F907F905F904F9008951C
:100E8000DC012115310541F4ED91FC910190F081D7
:100E9000E02D642F099508950E94DC060895CF92F5
:100EA000DF92EF92FF920F931F936C01E62E9A014F
:100EB000FF2400E010E0B801A7010E9440078C0168
:100EC000C6010E94A806080F191FC8011F910F91A3
:100ED000FF90EF90DF90CF900895CF92DF92EF9246
:100EE000FF920F931F93CF93DF93EC016A017B0175
:100EF0002115310541F4E881F9810190F081E02D5F
:100F0000642F09951FC02A303105D1F477FF17C02F
:100F1000E881F9810190F081E02D6DE209958C0165
:100F200044275527BA014C195D096E097F09CE0186
:100F30002AE00E94DC069801280F391F04C02AE02D
:100F40000E94DC069C01C901DF91CF911F910F9196
:100F5000FF90EF90DF90CF900895CF92DF92EF92C5
:100F6000FF920F931F936C017B019A010027F7FCFE
:100F70000095102FB801A7010E946D078C01C601D2
:100F80000E94A806080F191FC8011F910F91FF901A
:100F9000EF90DF90CF9008950E94C8060895EF92D9
:100FA000FF920F931F937C010E94C8068C01C7011A
:100FB0000E94A806080F191FC8011F910F91FF90EA
:100FC000EF9008956F927F928F929F92AF92BF920F
:100FD000CF92DF92EF92FF920F931F93CF93DF9305
:100FE000EC01AF84B888C988DA888B859C85AD858B
:100FF000BE85A81AB90ACA0ADB0A2B893C894D8921
:101000005E896B8C7C8C8D8C9E8CA114B104C10488
:10101000D10491F48BA99CA9ADA9BEA90097A10503
:10102000B10509F097C01BA21CA21DA21EA280E060
:1010300090E0A0E0B0E021C1CA01B9010E94710EA8
:101040007B018C01C401B301A40193010E94BA0C7D
:101050009B01AC01C801B7010E94220D0E948A0DBC
:101060009B01AC012F5F3F4F4F4F5F4FEBA8FCA898
:101070000DA91EA91A141B041C041D0444F51E14FA
:101080001F041006110674F42A153B054C055D0576
:10109000B4F5CD5BDF4F8881C354D040882309F07D
:1010A00059C02DC0E114F1040105110509F452C025
:1010B0002A153B054C055D050CF04CC0CD5BDF4FA0
:1010C0008881C354D040813009F044C038C01E1418
:1010D0001F0410061106DCF488279927DC018A1901
:1010E0009B09AC09BD09281739074A075B073CF47F
:1010F000CD5BDF4F8881C354D040813059F58827BC
:101100009927DC01821B930BA40BB50B1FC0E114C4
:10111000F10401051105F1F088279927DC018A19EE
:101120009B09AC09BD09281739074A075B0794F4E6
:10113000CD5BDF4F8881C354D040882359F4882782
:101140009927DC018E199F09A00BB10B8BAB9CABCF
:10115000ADABBEAB6BA87CA88DA89EA86114710432
:1011600081049104A9F48FA998ADA9ADBAAD8BAF54
:101170009CAFADAFBEAFFE01ED5BFF4F10821A1406
:101180001B041C041D040CF049C081E0808346C090
:10119000ABACBCACCDACDEACC601B50120E030E000
:1011A00040E050EC0E94710E7B018C01C401B30140
:1011B0000E94BD0D20E030E040E850E40E94710E36
:1011C00020E030E040E85FE30E94BA0C9B01AC01F4
:1011D000C801B7010E94220D9B01AC01C601B501F7
:1011E0000E94BA0C7B018C016BAF7CAF8DAF9EAFC0
:1011F000EF96A880B980CA80DB80EF979501A601A1
:101200000E946D0E181624F4D801C70157016D0114
:10121000C501D6018BAF9CAFADAFBEAF8BA99CA96A
:10122000ADA9BEA90196A11DB11D8BAB9CABADAB09
:10123000BEAB6BAD7CAD8DAD9EAD0E948F0D6BA333
:101240007CA38DA39EA360E074E284E799E42BADB8
:101250003CAD4DAD5EAD0E94220D9B01AC016B8B90
:101260007C8B8D8B9E8BCD5BDF4F8881C354D040B0
:10127000882339F4DA01C901B0588B8B9C8BAD8B74
:10128000BE8BDF91CF911F910F91FF90EF90DF9078
:10129000CF90BF90AF909F908F907F906F90089568
:1012A000EF92FF920F931F93CF93DF93EC017A019C
:1012B0008B016F89788D898D9A8DA80197010E9485
:1012C0001E0D8823E1F1EF8AF88E098F1A8FEF96B1
:1012D00060E074E284E799E4A80197010E94220D7E
:1012E000688379838A839B83EF978BA99CA9ADA997
:1012F000BEA9181619061A061B060CF52B893C897F
:101300004D895E89CA01B9010E94710E7B018C0171
:101310002B8D3C8D4D8D5E8DCA01B9010E94BA0C9A
:101320009B01AC01C801B7010E94220D0E948A0DE9
:101330006BAB7CAB8DAB9EABCE010E94E207DF9125
:10134000CF911F910F91FF90EF9008954F925F9270
:101350006F927F928F929F92AF92BF92CF92DF92C5
:10136000EF92FF920F931F93CF93DF932C017A019B
:101370008B01CB01BA01F201238934894589568951
:101380000E941E0D882309F455C0F201A788B08C75
:10139000C18CD28C3501460197FA909497F89094BD
:1013A000C801B701A40193010E941E0D88231CF4FB
:1013B000840173010AC0C801B701A60195010E940A
:1013C0006D0E181614F486017501C801B70120E0EE
:1013D00030E040E050E00E941E0D882331F4F2011D
:1013E00013A214A215A216A220C060E074E284E742
:1013F00099E4A80197010E94220D9F770E948F0D0A
:10140000F20163A374A385A396A3E201CD5BDF4F32
:101410001882C801B70120E030E040E050E00E94AF
:101420006D0E181614F481E08883F201E38AF48AC1
:10143000058B168BDF91CF911F910F91FF90EF904D
:10144000DF90CF90BF90AF909F908F907F906F90E4
:101450005F904F900895DC0112968C911297823024
:10146000D1F0833028F4882341F0813061F50CC03D
:101470008430C1F0883039F51EC0ED91FC91119790
:101480000480F581E02D14C0ED91FC911197068048
:10149000F781E02D0DC0ED91FC9111970084F1854D
:1014A000E02D06C0ED91FC9111970284F385E02DAB
:1014B000CD0109950895ED91FC9111970484F5856E
:1014C000E02DCD0109950895CF93DF93EC016B8951
:1014D0007C898D899E8920E030E040E050E00E94C8
:1014E0006D0E18161CF4EFA5F8A902C0E9A9FAA917
:1014F0000995DF91CF910895DC0170E06370707001
:1015000061307105A9F0623071051CF4672B41F060
:10151000089562307105A1F06330710501F518C0BE
:10152000ED91FC9111970190F081E02D62E00EC0E9
:10153000ED91FC9111970190F081E02D63E006C0E0
:10154000ED91FC910190F081E02D61E00995089505
:10155000ED91FC910190F081E02D60E009950895F6
:10156000DC0170E06370707061307105A9F0623069
:1015700071051CF4672B41F0089562307105A1F0EC
:101580006330710501F518C0ED91FC911197019040
:10159000F081E02D65E00EC0ED91FC911197019076
:1015A000F081E02D66E006C0ED91FC910190F081A4
:1015B000E02D6AE009950895ED91FC910190F0818C
:1015C000E02D69E009950895DC0170E067707070A6
:1015D0006330710591F1643071054CF4613071052F
:1015E000E1F0623071050CF5672B79F008956530F4
:1015F000710599F16530710544F166307105A9F105
:101600006730710509F040C038C0ED91FC91119729
:101610000190F081E02D61E02EC0ED91FC911197D9
:101620000190F081E02D65E026C0ED91FC911197CD
:101630000190F081E02D64E01EC0ED91FC911197C6
:101640000190F081E02D66E016C0ED91FC911197BC
:101650000190F081E02D62E00EC0ED91FC911197B8
:101660000190F081E02D6AE006C0ED91FC910190BF
:10167000F081E02D68E009950895ED91FC910190CD
:10168000F081E02D69E009950895CF92DF92EF9205
:10169000FF920F931F93CF93DF93FC01228124309D
:1016A00029F0283019F092E0D92E02C084E0D82E1B
:1016B0008F01C0E0D0E0E62EFF24CC24C394F801D3
:1016C0002381C7010C2E02C0959587950A94E2F7F5
:1016D000678180FD6C25822F0E94D90321960F5FC0
:1016E0001F4FCD1560F3DF91CF911F910F91FF90A8
:1016F000EF90DF90CF900895CF93DF93EC018A8134
:10170000882311F18B8161E00E949A038C8161E052
:101710000E949A038A81843011F0883041F48D81CF
:1017200061E00E949A038E8161E00E949A039EA567
:101730009F3F51F06DA581E06827892F0E94D90352
:101740008EA561E00E949A03DF91CF9108956F9278
:101750007F928F929F92AF92BF92CF92DF92EF9241
:101760000F93FC0187E192E091838083628313866B
:101770001486158616861786108A118A128A0F2EED
:10178000F0E06F2EF0E07F2EF0E08F2EF0E09F2E45
:10179000F02D638A748A858A968A0F2EF0E0AF2E28
:1017A000F0E0BF2EF0E8CF2EFFE3DF2EF02DA78A6A
:1017B000B08EC18ED28EA38EB48EC58ED68EA78EDD
:1017C000B0A2C1A2D2A213A214A215A216A281E0B5
:1017D00090E094A783A78FEF86A717A210A611A663
:1017E00012A6438324830583E68213AA14AA15AAAA
:1017F00016AA67AA70AE81AE92AE63AE74AE85AE25
:1018000096AEFF96A192B192C192D1921082E3540A
:10181000F0401782108611861286CF010E947C0B41
:101820000F91EF90DF90CF90BF90AF909F908F90EF
:101830007F906F9008950F931F93CF93DF93EC01E8
:10184000E881F981008111816B897C898D899E896C
:1018500020E030E040E050E00E946D0E181614F0D9
:1018600061E001C063E0CE01F80109958BA59CA55C
:101870000E945503E881F981008111816B897C897F
:101880008D899E8920E030E040E050E00E946D0E9E
:10189000181614F060E001C062E0CE01F80109956D
:1018A000DF91CF911F910F910895EF92FF920F93C7
:1018B0001F93CF93DF93EC018BA19CA1ADA1BEA19F
:1018C0000097A105B10509F44CC00E94D6027B0126
:1018D0008C012FA138A549A55AA58BA19CA1ADA12A
:1018E000BEA1820F931FA41FB51F82179307A407E1
:1018F000B50730F0E816F9060A071B0758F405C0CB
:10190000E816F9060A071B0760F1E216F30604075A
:10191000150738F5CD5BDF4F8881C354D0402B8548
:101920003C854D855E85813029F42F5F3F4F4F4FB9
:101930005F4F04C021503040404050402B873C87CF
:101940004D875E87E881F9816B8567700280F3813E
:10195000E02DCE010995EFA2F8A609A71AA781E00C
:1019600001C080E0DF91CF911F910F91FF90EF9028
:1019700008955058BB27AA270ED075C166D130F004
:101980006BD120F031F49F3F11F41EF45BC10EF4D3
:10199000E095E7FB51C1E92F77D180F3BA176207D1
:1019A00073078407950718F071F49EF58FC10EF444
:1019B000E0950B2EBA2FA02D0B01B90190010C015F
:1019C000CA01A0011124FF27591B99F0593F50F477
:1019D000503E68F11A16F040A22F232F342F4427CF
:1019E000585FF3CF469537952795A795F0405395C7
:1019F000C9F77EF41F16BA0B620B730B840BBAF097
:101A00009150A1F0FF0FBB1F661F771F881FC2F701
:101A10000EC0BA0F621F731F841F48F48795779515
:101A20006795B795F7959E3F08F0B3CF9395880FCC
:101A300008F09927EE0F979587950895D9D008F467
:101A400081E008950CD00FC107D140F0FED030F0F6
:101A500021F45F3F19F0F0C0511139C1F3C014D126
:101A600098F39923C9F35523B1F3951B550BBB2765
:101A7000AA2762177307840738F09F5F5F4F220F12
:101A8000331F441FAA1FA9F333D00E2E3AF0E0E80B
:101A900030D091505040E695001CCAF729D0FE2F57
:101AA00027D0660F771F881FBB1F261737074807E9
:101AB000AB07B0E809F0BB0B802DBF01FF2793589F
:101AC0005F4F2AF09E3F510568F0B6C000C15F3FEE
:101AD000ECF3983EDCF3869577956795B795F79587
:101AE0009F5FC9F7880F911D9695879597F908957F
:101AF000E1E0660F771F881FBB1F6217730784071B
:101B0000BA0720F0621B730B840BBA0BEE1F88F729
:101B1000E095089504D06894B111D9C00895BCD05F
:101B200088F09F5790F0B92F9927B751A0F0D1F0C6
:101B3000660F771F881F991F1AF0BA95C9F712C050
:101B4000B13081F0C3D0B1E00895C0C0672F782FC5
:101B50008827B85F39F0B93FCCF3869577956795BC
:101B6000B395D9F73EF490958095709561957F4F28
:101B70008F4F9F4F0895E89409C097FB3EF49095CE
:101B80008095709561957F4F8F4F9F4F9923A9F056
:101B9000F92F96E9BB279395F695879577956795E5
:101BA000B795F111F8CFFAF4BB0F11F460FF1BC029
:101BB0006F5F7F4F8F4F9F4F16C0882311F096E9BC
:101BC00011C0772321F09EE8872F762F05C066236A
:101BD00071F096E8862F70E060E02AF09A95660F23
:101BE000771F881FDAF7880F9695879597F90895DC
:101BF000990F0008550FAA0BE0E8FEEF161617061E
:101C0000E807F907C0F012161306E407F50798F085
:101C1000621B730B840B950B39F40A2661F0232B9E
:101C2000242B252B21F408950A2609F4A140A6951A
:101C30008FEF811D811D089597F99F6780E870E0FF
:101C400060E008959FEF80EC089500240A94161632
:101C5000170618060906089500240A94121613069A
:101C6000140605060895092E0394000C11F4882328
:101C700052F0BB0F40F4BF2B11F460FF04C06F5F44
:101C80007F4F8F4F9F4F089557FD9058440F551F1A
:101C900059F05F3F71F04795880F97FB991F61F0EE
:101CA0009F3F79F087950895121613061406551F65
:101CB000F2CF4695F1DF08C0161617061806991FD1
:101CC000F1CF86957105610508940895E894BB27C6
:101CD00066277727CB0197F908958ADF08F48FEFFD
:101CE00008950BD0C0CFB1DF28F0B6DF18F09523F0
:101CF00009F0A2CFA7CF1124EACFC6DFA0F3959FAA
:101D0000D1F3950F50E0551F629FF001729FBB27E2
:101D1000F00DB11D639FAA27F00DB11DAA1F649F8E
:101D20006627B00DA11D661F829F2227B00DA11D41
:101D3000621F739FB00DA11D621F839FA00D611DC7
:101D4000221F749F3327A00D611D231F849F600DE8
:101D5000211D822F762F6A2F11249F5750408AF021
:101D6000E1F088234AF0EE0FFF1FBB1F661F771FAD
:101D7000881F91505040A9F79E3F510570F05CCFED
:101D8000A6CF5F3FECF3983EDCF386957795679599
:101D9000B795F795E7959F5FC1F7FE2B880F911DCB
:101DA0009695879597F90895629FD001739FF001EA
:101DB000829FE00DF11D649FE00DF11D929FF00DDB
:101DC000839FF00D749FF00D659FF00D9927729F12
:101DD000B00DE11DF91F639FB00DE11DF91FBD019D
:101DE000CF0111240895A1E21A2EAA1BBB1BFD01ED
:101DF0000DC0AA1FBB1FEE1FFF1FA217B307E407EA
:101E0000F50720F0A21BB30BE40BF50B661F771F41
:101E1000881F991F1A9469F7609570958095909521
:101E20009B01AC01BD01CF010895EE0FFF1F05908E
:0A1E3000F491E02D0994F894FFCF1F
:101E3A005374617274204A6974746572696E672E8C
:101E4A000053746F7020547562652E004D6F76656D
:101E5A00205475626520696E2064697265637469CD
:101E6A006F6E3A20004849444520425554544F4E1B
:101E7A002050524553534544202D206D6F76696E8C
:101E8A006720646F776E77617264730042555454A9
:101E9A004F4E2050524553534544202D20737461B0
:101EAA0074652073657420746F3A20002D2D2042CA
:101EBA004F54544F4D20524545442053574954439B
:101ECA004820545249474745524544202D2D002D5C
:101EDA002D20544F502052454544205357495443CE
:101EEA004820545249474745524544202D2D004A1F
:101EFA0049545445523A004A49545445523A2043A7
:101F0A0068616E676520646972656374696F6E00E3
:101F1A002D2D2D2053455249414C204D4F4E4954A9
:101F2A004F52204F4E4C494E45202D2D2D200A0050
:101F3A0001010100000000F5057E068905BA059A2F
:101F4A0005E30500000000450B2B0A640A1B0C7C04
:061F5A000AB00AE40A00CF
:00000001FF
